{
  "contractName": "HashedTimelockERC721",
  "abi": [
    {
      "anonymous": false,
      "inputs": [
        {
          "indexed": true,
          "internalType": "uint256",
          "name": "contractId",
          "type": "uint256"
        },
        {
          "indexed": true,
          "internalType": "address",
          "name": "sender",
          "type": "address"
        },
        {
          "indexed": true,
          "internalType": "address",
          "name": "receiver",
          "type": "address"
        },
        {
          "indexed": false,
          "internalType": "address",
          "name": "tokenContract",
          "type": "address"
        },
        {
          "indexed": false,
          "internalType": "uint256",
          "name": "tokenId",
          "type": "uint256"
        },
        {
          "indexed": false,
          "internalType": "string",
          "name": "hashlock",
          "type": "string"
        },
        {
          "indexed": false,
          "internalType": "address",
          "name": "requestedcontract",
          "type": "address"
        },
        {
          "indexed": false,
          "internalType": "uint256",
          "name": "requestedid",
          "type": "uint256"
        }
      ],
      "name": "HTLCERC721New",
      "type": "event"
    },
    {
      "anonymous": false,
      "inputs": [
        {
          "indexed": true,
          "internalType": "uint256",
          "name": "contractId",
          "type": "uint256"
        }
      ],
      "name": "HTLCERC721Refund",
      "type": "event"
    },
    {
      "anonymous": false,
      "inputs": [
        {
          "indexed": true,
          "internalType": "uint256",
          "name": "contractId",
          "type": "uint256"
        }
      ],
      "name": "HTLCERC721Withdraw",
      "type": "event"
    },
    {
      "inputs": [
        {
          "internalType": "address",
          "name": "",
          "type": "address"
        }
      ],
      "name": "whiteListedAddress",
      "outputs": [
        {
          "internalType": "bool",
          "name": "",
          "type": "bool"
        }
      ],
      "stateMutability": "view",
      "type": "function",
      "constant": true
    },
    {
      "inputs": [
        {
          "internalType": "address",
          "name": "_receiver",
          "type": "address"
        },
        {
          "internalType": "string",
          "name": "_hashlock",
          "type": "string"
        },
        {
          "internalType": "address",
          "name": "_tokenContract",
          "type": "address"
        },
        {
          "internalType": "uint256",
          "name": "_tokenId",
          "type": "uint256"
        },
        {
          "internalType": "address",
          "name": "_requestedcontract",
          "type": "address"
        },
        {
          "internalType": "uint256",
          "name": "_requestedid",
          "type": "uint256"
        }
      ],
      "name": "newContract",
      "outputs": [
        {
          "internalType": "uint256",
          "name": "_contractId",
          "type": "uint256"
        }
      ],
      "stateMutability": "payable",
      "type": "function",
      "payable": true
    },
    {
      "inputs": [
        {
          "internalType": "uint256",
          "name": "_contractId",
          "type": "uint256"
        },
        {
          "internalType": "string",
          "name": "_preimage",
          "type": "string"
        }
      ],
      "name": "withdraw",
      "outputs": [
        {
          "internalType": "bool",
          "name": "",
          "type": "bool"
        }
      ],
      "stateMutability": "payable",
      "type": "function",
      "payable": true
    },
    {
      "inputs": [
        {
          "internalType": "uint256",
          "name": "_contractId",
          "type": "uint256"
        }
      ],
      "name": "refund",
      "outputs": [
        {
          "internalType": "bool",
          "name": "",
          "type": "bool"
        }
      ],
      "stateMutability": "nonpayable",
      "type": "function"
    },
    {
      "inputs": [
        {
          "internalType": "uint256",
          "name": "_Amount",
          "type": "uint256"
        }
      ],
      "name": "SetverificationFees",
      "outputs": [],
      "stateMutability": "nonpayable",
      "type": "function"
    },
    {
      "inputs": [
        {
          "internalType": "address",
          "name": "_collectibleAddress",
          "type": "address"
        }
      ],
      "name": "SubmitContract",
      "outputs": [],
      "stateMutability": "payable",
      "type": "function",
      "payable": true
    },
    {
      "inputs": [
        {
          "internalType": "uint256",
          "name": "_contractId",
          "type": "uint256"
        }
      ],
      "name": "getContract",
      "outputs": [
        {
          "internalType": "address",
          "name": "sender",
          "type": "address"
        },
        {
          "internalType": "address",
          "name": "receiver",
          "type": "address"
        },
        {
          "internalType": "address",
          "name": "tokenContract",
          "type": "address"
        },
        {
          "internalType": "uint256",
          "name": "tokenId",
          "type": "uint256"
        },
        {
          "internalType": "string",
          "name": "hashlock",
          "type": "string"
        },
        {
          "internalType": "bool",
          "name": "withdrawn",
          "type": "bool"
        },
        {
          "internalType": "bool",
          "name": "refunded",
          "type": "bool"
        },
        {
          "internalType": "string",
          "name": "preimage",
          "type": "string"
        }
      ],
      "stateMutability": "view",
      "type": "function",
      "constant": true
    },
    {
      "inputs": [
        {
          "internalType": "address",
          "name": "_Address",
          "type": "address"
        }
      ],
      "name": "MyTrades",
      "outputs": [
        {
          "internalType": "uint256[]",
          "name": "",
          "type": "uint256[]"
        }
      ],
      "stateMutability": "view",
      "type": "function",
      "constant": true
    },
    {
      "inputs": [],
      "name": "AllTrades",
      "outputs": [
        {
          "internalType": "uint256",
          "name": "",
          "type": "uint256"
        }
      ],
      "stateMutability": "view",
      "type": "function",
      "constant": true
    },
    {
      "inputs": [
        {
          "internalType": "address",
          "name": "_address",
          "type": "address"
        }
      ],
      "name": "validateaddress",
      "outputs": [
        {
          "internalType": "bool",
          "name": "",
          "type": "bool"
        }
      ],
      "stateMutability": "view",
      "type": "function",
      "constant": true
    }
  ],
  "bytecode": "0x6080604052600080556602738d24e5200060025534801561001f57600080fd5b506113d28061002f6000396000f3fe6080604052600436106100955760003560e060020a900480636ebc8c861161005d5780636ebc8c8614610152578063c166d13d14610186578063dc048cf2146101a6578063e3b1d3d3146101b9578063eb707a03146101db57610095565b80630a1e0f311461009a5780631fc16ab3146100d0578063278ecde1146100fd5780635df2e05c1461011d5780636b56211f1461013d575b600080fd5b3480156100a657600080fd5b506100ba6100b5366004610e03565b6101ee565b6040516100c7919061103f565b60405180910390f35b3480156100dc57600080fd5b506100f06100eb366004610e03565b61025b565b6040516100c79190611083565b34801561010957600080fd5b506100f0610118366004610ec9565b610290565b61013061012b366004610e42565b610437565b6040516100c791906112b8565b34801561014957600080fd5b506101306107c7565b34801561015e57600080fd5b5061017261016d366004610ec9565b6107cd565b6040516100c7989796959493929190610f71565b34801561019257600080fd5b506100f06101a1366004610e03565b6109a8565b6100f06101b4366004610ee1565b6109bd565b3480156101c557600080fd5b506101d96101d4366004610ec9565b610bdc565b005b6101d96101e9366004610e03565b610be1565b600160a060020a03811660009081526005602090815260409182902080548351818402810184019094528084526060939283018282801561024e57602002820191906000526020600020905b81548152602001906001019080831161023a575b505050505090505b919050565b600160a060020a03811660009081526003602052604081205460ff16151560011461028857506000610256565b506001610256565b60008161029c81610c50565b6102c45760405160e560020a62461bcd0281526004016102bb90611148565b60405180910390fd5b6000838152600460205260409020548390600160a060020a031633146102ff5760405160e560020a62461bcd0281526004016102bb90611224565b600081815260046020526040902060070154610100900460ff16156103395760405160e560020a62461bcd0281526004016102bb906111b6565b60008181526004602052604090206007015460ff161561036e5760405160e560020a62461bcd0281526004016102bb9061117f565b60008481526004602081905260409182902060078101805461ff001916610100179055600281015481546003830154945160e060020a6323b872dd0281529294600160a060020a03928316946323b872dd946103cf94309416929101610fdf565b600060405180830381600087803b1580156103e957600080fd5b505af11580156103fd573d6000803e3d6000fd5b50506040518792507f019f57bc1cf49f7d31b6a53f15255ae62cec31145c6727f0be6d246c101f373d9150600090a2506001949350505050565b6000848430600160a060020a031682600160a060020a031663081812fc836040518263ffffffff1660e060020a02815260040161047491906112b8565b60206040518083038186803b15801561048c57600080fd5b505afa1580156104a0573d6000803e3d6000fd5b505050506040513d601f19601f820116820180604052508101906104c49190610e26565b600160a060020a0316146104ed5760405160e560020a62461bcd0281526004016102bb9061108e565b60005492506104fb8761025b565b15156001146105135760025434101561051357600080fd5b60405160e060020a6323b872dd028152600160a060020a038816906323b872dd9061054690339030908b90600401610fdf565b600060405180830381600087803b15801561056057600080fd5b505af1158015610574573d6000803e3d6000fd5b5050505060405180610140016040528033600160a060020a031681526020018a600160a060020a0316815260200188600160a060020a0316815260200187815260200189815260200186600160a060020a0316815260200185815260200160001515815260200160001515815260200189815250600460008054815260200190815260200160002060008201518160000160006101000a815481600160a060020a030219169083600160a060020a0316021790555060208201518160010160006101000a815481600160a060020a030219169083600160a060020a0316021790555060408201518160020160006101000a815481600160a060020a030219169083600160a060020a031602179055506060820151816003015560808201518160040190805190602001906106a9929190610ce9565b5060a082015160058201805473ffffffffffffffffffffffffffffffffffffffff1916600160a060020a0390921691909117905560c0820151600682015560e08201516007820180546101008086015160ff199092169315159390931761ff0019169015159092029190911790556101208201518051610733916008840191602090910190610ce9565b50506000805491508061074583611315565b90915550503360008181526005602090815260408083208054600181018255908452919092200185905551600160a060020a038b16919085907fe0d32d16683ca95fbcb659fc7b7d8ae17c51239221fcad4c2be532eecaabe653906107b3908c908c908f908d908d90611003565b60405180910390a450509695505050505050565b60005490565b600080600080606060008060606107e389610c50565b61081c5750506040805160208082018352600080835283519182019093528281529197508796508695508594509250839150819061099d565b60008981526004602081905260409091208054600182015460028301546003840154600785015495850180549596600160a060020a039586169694861695909316939192909160ff80831692610100900416906008890190849061087f906112c1565b80601f01602080910402602001604051908101604052809291908181526020018280546108ab906112c1565b80156108f85780601f106108cd576101008083540402835291602001916108f8565b820191906000526020600020905b8154815290600101906020018083116108db57829003601f168201915b5050505050935080805461090b906112c1565b80601f0160208091040260200160405190810160405280929190818152602001828054610937906112c1565b80156109845780601f1061095957610100808354040283529160200191610984565b820191906000526020600020905b81548152906001019060200180831161096757829003601f168201915b5050505050905098509850985098509850985098509850505b919395975091939597565b60036020526000908152604090205460ff1681565b6000826109c981610c50565b6109e85760405160e560020a62461bcd0281526004016102bb90611148565b6000848152600460205260409020600101548490600160a060020a03163314610a265760405160e560020a62461bcd0281526004016102bb90611111565b60008181526004602052604090206007015460ff1615610a5b5760405160e560020a62461bcd0281526004016102bb906111ed565b60008581526004602052604090206002810154610a8090600160a060020a031661025b565b1515600114610a9857600254341015610a9857600080fd5b8451610aad9060048301906020880190610ce9565b5060058101548154600683015460405160e060020a6323b872dd028152600160a060020a03938416936323b872dd93610aef9333939290911691600401610fdf565b600060405180830381600087803b158015610b0957600080fd5b505af1158015610b1d573d6000803e3d6000fd5b50505060028201546001830154600384015460405160e060020a6323b872dd028152600160a060020a0393841694506323b872dd93610b63933093911691600401610fdf565b600060405180830381600087803b158015610b7d57600080fd5b505af1158015610b91573d6000803e3d6000fd5b50505060078201805460ff19166001179055506000805460405190917f1f1d15a0dc959b0b4700d76fb0cb82771c84dfd766a86e6753bb5326f1308da091a250600195945050505050565b600155565b600154341015610bf057600080fd5b610bf981610c6d565b600160a060020a031633600160a060020a031614610c2c5760405160e560020a62461bcd0281526004016102bb9061125b565b600160a060020a03166000908152600360205260409020805460ff19166001179055565b600090815260046020526040902054600160a060020a0316151590565b600081600160a060020a0316638da5cb5b6040518163ffffffff1660e060020a02815260040160206040518083038186803b158015610cab57600080fd5b505afa158015610cbf573d6000803e3d6000fd5b505050506040513d601f19601f82011682018060405250810190610ce39190610e26565b92915050565b828054610cf5906112c1565b90600052602060002090601f016020900481019282610d175760008555610d5d565b82601f10610d3057805160ff1916838001178555610d5d565b82800160010185558215610d5d579182015b82811115610d5d578251825591602001919060010190610d42565b50610d69929150610d6d565b5090565b5b80821115610d695760008155600101610d6e565b600082601f830112610d92578081fd5b813567ffffffffffffffff80821115610dad57610dad611355565b604051601f8301601f191681016020018281118282101715610dd157610dd1611355565b604052828152848301602001861015610de8578384fd5b82602086016020830137918201602001929092529392505050565b600060208284031215610e14578081fd5b8135610e1f81611384565b9392505050565b600060208284031215610e37578081fd5b8151610e1f81611384565b60008060008060008060c08789031215610e5a578182fd5b8635610e6581611384565b9550602087013567ffffffffffffffff811115610e80578283fd5b610e8c89828a01610d82565b9550506040870135610e9d81611384565b9350606087013592506080870135610eb481611384565b8092505060a087013590509295509295509295565b600060208284031215610eda578081fd5b5035919050565b60008060408385031215610ef3578182fd5b82359150602083013567ffffffffffffffff811115610f10578182fd5b610f1c85828601610d82565b9150509250929050565b60008151808452815b81811015610f4b57602081850181015186830182015201610f2f565b81811115610f5c5782602083870101525b50601f01601f19169290920160200192915050565b6000610100600160a060020a03808c168452808b166020850152808a16604085015250876060840152806080840152610fac81840188610f26565b905085151560a084015284151560c084015282810360e0840152610fd08185610f26565b9b9a5050505050505050505050565b600160a060020a039384168152919092166020820152604081019190915260600190565b6000600160a060020a03808816835286602084015260a0604084015261102c60a0840187610f26565b9416606083015250608001529392505050565b6020808252825182820181905260009190848201906040850190845b818110156110775783518352928401929184019160010161105b565b50909695505050505050565b901515815260200190565b60208082526046908201527f5468652048544c43206d7573742068617665206265656e2064657369676e617460408201527f656420616e20617070726f766564207370656e64657220666f7220746865207460608201527f6f6b656e49640000000000000000000000000000000000000000000000000000608082015260a00190565b6020808252601a908201527f776974686472617761626c653a206e6f74207265636569766572000000000000604082015260600190565b60208082526019908201527f636f6e7472616374496420646f6573206e6f7420657869737400000000000000604082015260600190565b6020808252601d908201527f726566756e6461626c653a20616c72656164792077697468647261776e000000604082015260600190565b6020808252601c908201527f726566756e6461626c653a20616c726561647920726566756e64656400000000604082015260600190565b6020808252601f908201527f776974686472617761626c653a20616c72656164792077697468647261776e00604082015260600190565b60208082526016908201527f726566756e6461626c653a206e6f742073656e64657200000000000000000000604082015260600190565b60208082526029908201527f796f7520617265206e6f7420746865204f776e6572206f66207468697320636f60408201527f6f6c65637469626c650000000000000000000000000000000000000000000000606082015260800190565b90815260200190565b6002810460018216806112d557607f821691505b6020821081141561130f577f4e487b7100000000000000000000000000000000000000000000000000000000600052602260045260246000fd5b50919050565b600060001982141561134e577f4e487b710000000000000000000000000000000000000000000000000000000081526011600452602481fd5b5060010190565b7f4e487b7100000000000000000000000000000000000000000000000000000000600052604160045260246000fd5b600160a060020a038116811461139957600080fd5b5056fea26469706673582212200524b78a8193e8ae47b30f3e8ae816638897a957dc600e745089f7cfaedd6a9d64736f6c63430008000033",
  "immutableReferences": {},
  "source": "pragma solidity 0.8.0; \r\n\r\n  import \"../node_modules/openzeppelin-solidity/contracts/utils/Context.sol\";\r\n  import \"../node_modules/openzeppelin-solidity/contracts/token/ERC721/extensions/ERC721Burnable.sol\";\r\n  import \"../node_modules/openzeppelin-solidity/contracts/token/ERC721/extensions/ERC721URIStorage.sol\";\r\n  import \"../node_modules/openzeppelin-solidity/contracts/access/Ownable.sol\";\r\n  import \"../node_modules/openzeppelin-solidity/contracts/utils/Counters.sol\";\r\n  import \"../node_modules/openzeppelin-solidity/contracts/token/ERC721/ERC721.sol\";\r\n  import \"../node_modules/openzeppelin-solidity/contracts/token/ERC721/extensions/ERC721Enumerable.sol\";\r\n\r\ncontract HashedTimelockERC721 {\r\n\r\n    event HTLCERC721New(\r\n        uint256 indexed contractId,\r\n        address indexed sender,\r\n        address indexed receiver,\r\n        address tokenContract,\r\n        uint256 tokenId,\r\n        string hashlock,\r\n        address requestedcontract,\r\n        uint256 requestedid\r\n    );\r\n    event HTLCERC721Withdraw(uint256 indexed contractId);\r\n    event HTLCERC721Refund(uint256 indexed contractId);\r\n\r\n    struct LockContract {\r\n        address Sender;\r\n        address receiver;\r\n        address tokenContract;\r\n        uint256 tokenId;\r\n        string hashlock;\r\n        address requestedcontract;\r\n        uint256 requestedid;\r\n        bool withdrawn;\r\n        bool refunded;\r\n        string preimage;\r\n    }\r\n\r\n    modifier tokensTransferable(address _token, uint256 _tokenId) {\r\n        // ensure this contract is approved to transfer the designated token\r\n        // so that it is able to honor the claim request later\r\n        require(\r\n            ERC721(_token).getApproved(_tokenId) == address(this),\r\n            \"The HTLC must have been designated an approved spender for the tokenId\"\r\n        );\r\n        _; \r\n    }\r\n    \r\n    modifier contractExists(uint256 _contractId) {\r\n        require(haveContract(_contractId), \"contractId does not exist\");\r\n        _;\r\n    }\r\n    \r\n    modifier withdrawable(uint256 _contractId) {\r\n        require(contracts[_contractId].receiver == msg.sender, \"withdrawable: not receiver\");\r\n        require(contracts[_contractId].withdrawn == false, \"withdrawable: already withdrawn\");\r\n        _;\r\n    }\r\n    modifier refundable(uint256 _contractId) {\r\n        require(contracts[_contractId].Sender == msg.sender, \"refundable: not sender\");\r\n        require(contracts[_contractId].refunded == false, \"refundable: already refunded\");\r\n        require(contracts[_contractId].withdrawn == false, \"refundable: already withdrawn\");\r\n        _;\r\n    }\r\n    uint256 contractId = 0;\r\n    uint256 verificatonfees;\r\n    uint256 ExchangeFees = 0.00069 ether;\r\n    mapping(address => bool) public whiteListedAddress;\r\n    mapping (uint256 => LockContract) contracts;\r\n    mapping(address => uint256[]) Trades;\r\n    \r\n    /**\r\n     * @dev Sender / Payer sets up a new hash time lock contract depositing the\r\n     * funds and providing the reciever and terms.\r\n     *\r\n     * NOTE: _receiver must first call approve() on the token contract.\r\n     *       See isApprovedOrOwner check in tokensTransferable modifier.\r\n     * @param _receiver Receiver of the tokens.\r\n     * @param _hashlock A sha-2 sha256 hash hashlock.\r\n     * @param _tokenContract ERC20 Token contract address.\r\n     * @param _tokenId Id of the token to lock up.\r\n     * @param _requestedcontract contract address for the requestednft.\r\n     * @param _requestedid tokenid for the requested id.\r\n     */\r\n    function newContract(\r\n        address _receiver,\r\n        string memory _hashlock,\r\n        address _tokenContract,\r\n        uint256 _tokenId,\r\n        address _requestedcontract,\r\n        uint256 _requestedid\r\n    )\r\n        external\r\n        payable\r\n        tokensTransferable(_tokenContract, _tokenId)\r\n        returns (uint256 _contractId)\r\n    {\r\n       _contractId = contractId;\r\n       if(validateaddress(_tokenContract)!=true){\r\n           require(msg.value>=ExchangeFees);\r\n       }\r\n        // This contract becomes the temporary owner of the token\r\n    ERC721(_tokenContract).transferFrom(msg.sender, address(this), _tokenId);\r\n\r\n        contracts[contractId] = LockContract(\r\n            msg.sender,\r\n            _receiver,\r\n            _tokenContract,\r\n            _tokenId,\r\n            _hashlock,\r\n            _requestedcontract,\r\n            _requestedid,\r\n            false,\r\n            false,\r\n            _hashlock\r\n        );\r\n        \r\n        contractId++;\r\n        \r\n        Trades[msg.sender].push(_contractId);\r\n\r\n        emit HTLCERC721New(\r\n            _contractId,\r\n            msg.sender,\r\n            _receiver,\r\n            _tokenContract,\r\n            _tokenId,\r\n            _hashlock,\r\n            _requestedcontract,\r\n            _requestedid\r\n        );\r\n    }\r\n\r\n    /**\r\n    * @dev Called by the receiver once they know the preimage of the hashlock.\r\n    * This will transfer ownership of the locked tokens to their address.\r\n    *\r\n    * @param _contractId Id of the HTLC.\r\n    * @param _preimage sha256(_preimage) should equal the contract hashlock.\r\n    * @return bool true on success\r\n     */\r\n    function withdraw(uint256 _contractId,string memory _preimage)\r\n        external\r\n        payable\r\n        contractExists(_contractId)\r\n        withdrawable(_contractId)\r\n        returns (bool)\r\n    {\r\n        \r\n        LockContract storage c = contracts[_contractId];\r\n        if(validateaddress(c.tokenContract)!=true){\r\n           require(msg.value>=ExchangeFees);\r\n        }\r\n        c.hashlock = _preimage;\r\n        ERC721(c.requestedcontract).transferFrom(msg.sender, c.Sender, c.requestedid);\r\n        ERC721(c.tokenContract).transferFrom(address(this), c.receiver, c.tokenId);\r\n        c.withdrawn = true;\r\n        emit HTLCERC721Withdraw(contractId);\r\n        return true;\r\n    }\r\n\r\n    /**\r\n     * @dev Called by the sender if there was no withdraw AND the time lock has\r\n     * expired. This will restore ownership of the tokens to the sender.\r\n     *\r\n     * @param _contractId Id of HTLC to refund from.\r\n     * @return bool true on success\r\n     */\r\n    function refund(uint256 _contractId)\r\n        external\r\n        contractExists(_contractId)\r\n        refundable(_contractId)\r\n        returns (bool)\r\n    {\r\n        LockContract storage c = contracts[_contractId];\r\n        c.refunded = true;\r\n        ERC721(c.tokenContract).transferFrom(address(this), c.Sender, c.tokenId);\r\n        emit HTLCERC721Refund(_contractId);\r\n        return true;\r\n    }\r\n    \r\n    function SetverificationFees(uint256 _Amount)public{\r\n        verificatonfees = _Amount;\r\n    }\r\n    \r\n    function SubmitContract(address _collectibleAddress)public payable{\r\n        require(msg.value >= verificatonfees);\r\n        if (msg.sender !=Owner(_collectibleAddress)){\r\n            revert(\"you are not the Owner of this coolectible\");\r\n        }\r\n        whiteListedAddress[_collectibleAddress]=true;\r\n    }\r\n\r\n    \r\n    // * @dev Get contract details.\r\n    // * @param _contractId HTLC contract id\r\n     //* @return All parameters in struct LockContract for _contractId HTLC\r\n     \r\n    function getContract(uint256 _contractId)\r\n        public\r\n        view\r\n        returns (\r\n            address sender,\r\n            address receiver,\r\n            address tokenContract,\r\n            uint256 tokenId,\r\n            string memory hashlock,\r\n            bool withdrawn,\r\n            bool refunded,\r\n            string memory preimage\r\n        )\r\n    {\r\n        if (haveContract(_contractId) == false)\r\n             return (address(0), address(0), address(0), 0, \"\",false, false, \"\");\r\n        LockContract storage c = contracts[_contractId];\r\n        return (\r\n            c.Sender,\r\n            c.receiver,\r\n            c.tokenContract,\r\n            c.tokenId,\r\n            c.hashlock,\r\n            c.withdrawn,\r\n            c.refunded,\r\n            c.preimage\r\n        );\r\n    }\r\n\r\n    /**\r\n     * @dev Is there a contract with id _contractId.\r\n     * @param _contractId Id into contracts mapping.\r\n     */\r\n    function haveContract(uint256 _contractId)\r\n        internal\r\n        view\r\n        returns (bool exists)\r\n    {\r\n        exists = (contracts[_contractId].Sender != address(0));\r\n    }\r\n    \r\n    \r\n    function MyTrades(address _Address) public view returns(uint256[]memory){\r\n      return Trades[_Address];\r\n    }\r\n    \r\n    function AllTrades()public view returns(uint256){\r\n        return contractId;\r\n    }\r\n    \r\n    function Owner(address _CollectibleAddress)internal view returns(address){\r\n        return Ownable(_CollectibleAddress).owner();\r\n    }\r\n    \r\n    \r\n    function validateaddress (address _address) public view returns(bool){\r\n        if(whiteListedAddress[_address]!=true){\r\n          return false;\r\n        }else{\r\n            return true;\r\n        }\r\n    }\r\n}",
  "sourcePath": "D:\\Nano\\Projects\\NFT-zap\\contracts\\HashedTimelockERC721.sol",
  "compiler": {
    "name": "solc",
    "version": "0.8.0+commit.c7dfd78e.Emscripten.clang"
  },
  "schemaVersion": "3.4.3",
  "updatedAt": "2021-11-14T06:56:21.789Z",
  "networkType": "ethereum",
  "devdoc": {
    "kind": "dev",
    "methods": {
      "newContract(address,string,address,uint256,address,uint256)": {
        "details": "Sender / Payer sets up a new hash time lock contract depositing the funds and providing the reciever and terms. NOTE: _receiver must first call approve() on the token contract.       See isApprovedOrOwner check in tokensTransferable modifier.",
        "params": {
          "_hashlock": "A sha-2 sha256 hash hashlock.",
          "_receiver": "Receiver of the tokens.",
          "_requestedcontract": "contract address for the requestednft.",
          "_requestedid": "tokenid for the requested id.",
          "_tokenContract": "ERC20 Token contract address.",
          "_tokenId": "Id of the token to lock up."
        }
      },
      "refund(uint256)": {
        "details": "Called by the sender if there was no withdraw AND the time lock has expired. This will restore ownership of the tokens to the sender.",
        "params": {
          "_contractId": "Id of HTLC to refund from."
        },
        "returns": {
          "_0": "bool true on success"
        }
      },
      "withdraw(uint256,string)": {
        "details": "Called by the receiver once they know the preimage of the hashlock. This will transfer ownership of the locked tokens to their address.",
        "params": {
          "_contractId": "Id of the HTLC.",
          "_preimage": "sha256(_preimage) should equal the contract hashlock."
        },
        "returns": {
          "_0": "bool true on success"
        }
      }
    },
    "version": 1
  },
  "userdoc": {
    "kind": "user",
    "methods": {},
    "version": 1
  }
}